{
  "contractName": "DPost",
  "abi": [
    {
      "anonymous": false,
      "inputs": [
        {
          "indexed": false,
          "internalType": "string",
          "name": "text",
          "type": "string"
        },
        {
          "indexed": false,
          "internalType": "uint256",
          "name": "time",
          "type": "uint256"
        },
        {
          "indexed": false,
          "internalType": "address",
          "name": "userId",
          "type": "address"
        }
      ],
      "name": "postCreated",
      "type": "event"
    },
    {
      "inputs": [
        {
          "internalType": "string",
          "name": "_text",
          "type": "string"
        }
      ],
      "name": "createPost",
      "outputs": [],
      "stateMutability": "nonpayable",
      "type": "function"
    },
    {
      "inputs": [],
      "name": "getAllPost",
      "outputs": [
        {
          "components": [
            {
              "internalType": "string",
              "name": "text",
              "type": "string"
            },
            {
              "internalType": "uint256",
              "name": "time",
              "type": "uint256"
            },
            {
              "internalType": "address",
              "name": "userId",
              "type": "address"
            },
            {
              "internalType": "uint256",
              "name": "likeCount",
              "type": "uint256"
            },
            {
              "internalType": "address[]",
              "name": "likeBy",
              "type": "address[]"
            }
          ],
          "internalType": "struct DPost.Post[]",
          "name": "",
          "type": "tuple[]"
        }
      ],
      "stateMutability": "view",
      "type": "function",
      "constant": true
    },
    {
      "inputs": [],
      "name": "getCount",
      "outputs": [
        {
          "internalType": "uint256",
          "name": "",
          "type": "uint256"
        }
      ],
      "stateMutability": "view",
      "type": "function",
      "constant": true
    },
    {
      "inputs": [
        {
          "internalType": "uint256",
          "name": "index",
          "type": "uint256"
        },
        {
          "internalType": "address",
          "name": "addr",
          "type": "address"
        }
      ],
      "name": "likePost",
      "outputs": [
        {
          "internalType": "bool",
          "name": "",
          "type": "bool"
        }
      ],
      "stateMutability": "nonpayable",
      "type": "function"
    }
  ],
  "bytecode": "0x60806040526000805534801561001457600080fd5b50610eeb806100246000396000f3fe608060405234801561001057600080fd5b506004361061004c5760003560e01c806360ee249014610051578063a87d942c14610081578063c7303c611461009f578063da7d9d10146100bb575b600080fd5b61006b60048036038101906100669190610833565b6100d9565b604051610078919061088e565b60405180910390f35b6100896102a4565b60405161009691906108b8565b60405180910390f35b6100b960048036038101906100b49190610a19565b6102ad565b005b6100c3610430565b6040516100d09190610cf6565b60405180910390f35b6000806000905060005b600185815481106100f7576100f6610d18565b5b9060005260206000209060050201600401805490508110156101c9576001858154811061012757610126610d18565b5b9060005260206000209060050201600401818154811061014a57610149610d18565b5b9060005260206000200160009054906101000a900473ffffffffffffffffffffffffffffffffffffffff1673ffffffffffffffffffffffffffffffffffffffff168473ffffffffffffffffffffffffffffffffffffffff16036101b6576001915060009250505061029e565b80806101c190610d76565b9150506100e3565b50600015158115150361029857600184815481106101ea576101e9610d18565b5b9060005260206000209060050201600301600081548092919061020c90610d76565b91905055506001848154811061022557610224610d18565b5b9060005260206000209060050201600401839080600181540180825580915050600190039060005260206000200160009091909190916101000a81548173ffffffffffffffffffffffffffffffffffffffff021916908373ffffffffffffffffffffffffffffffffffffffff1602179055505b60019150505b92915050565b60008054905090565b600042905060003390506102bf610619565b8381600001819052508281602001818152505081816040019073ffffffffffffffffffffffffffffffffffffffff16908173ffffffffffffffffffffffffffffffffffffffff168152505060008160600181815250506001819080600181540180825580915050600190039060005260206000209060050201600090919091909150600082015181600001908051906020019061035d92919061065e565b506020820151816001015560408201518160020160006101000a81548173ffffffffffffffffffffffffffffffffffffffff021916908373ffffffffffffffffffffffffffffffffffffffff1602179055506060820151816003015560808201518160040190805190602001906103d59291906106e4565b5050506000808154809291906103ea90610d76565b91905055507f1ee73d2bf7898f8ca69b2281829cb7a8e330b6a80ae1d39ef33c6e350fb8ddf784848460405161042293929190610e17565b60405180910390a150505050565b60606001805480602002602001604051908101604052809291908181526020016000905b8282101561061057838290600052602060002090600502016040518060a001604052908160008201805461048790610e84565b80601f01602080910402602001604051908101604052809291908181526020018280546104b390610e84565b80156105005780601f106104d557610100808354040283529160200191610500565b820191906000526020600020905b8154815290600101906020018083116104e357829003601f168201915b50505050508152602001600182015481526020016002820160009054906101000a900473ffffffffffffffffffffffffffffffffffffffff1673ffffffffffffffffffffffffffffffffffffffff1673ffffffffffffffffffffffffffffffffffffffff16815260200160038201548152602001600482018054806020026020016040519081016040528092919081815260200182805480156105f857602002820191906000526020600020905b8160009054906101000a900473ffffffffffffffffffffffffffffffffffffffff1673ffffffffffffffffffffffffffffffffffffffff16815260200190600101908083116105ae575b50505050508152505081526020019060010190610454565b50505050905090565b6040518060a001604052806060815260200160008152602001600073ffffffffffffffffffffffffffffffffffffffff16815260200160008152602001606081525090565b82805461066a90610e84565b90600052602060002090601f01602090048101928261068c57600085556106d3565b82601f106106a557805160ff19168380011785556106d3565b828001600101855582156106d3579182015b828111156106d25782518255916020019190600101906106b7565b5b5090506106e0919061076e565b5090565b82805482825590600052602060002090810192821561075d579160200282015b8281111561075c5782518260006101000a81548173ffffffffffffffffffffffffffffffffffffffff021916908373ffffffffffffffffffffffffffffffffffffffff16021790555091602001919060010190610704565b5b50905061076a919061076e565b5090565b5b8082111561078757600081600090555060010161076f565b5090565b6000604051905090565b600080fd5b600080fd5b6000819050919050565b6107b28161079f565b81146107bd57600080fd5b50565b6000813590506107cf816107a9565b92915050565b600073ffffffffffffffffffffffffffffffffffffffff82169050919050565b6000610800826107d5565b9050919050565b610810816107f5565b811461081b57600080fd5b50565b60008135905061082d81610807565b92915050565b6000806040838503121561084a57610849610795565b5b6000610858858286016107c0565b92505060206108698582860161081e565b9150509250929050565b60008115159050919050565b61088881610873565b82525050565b60006020820190506108a3600083018461087f565b92915050565b6108b28161079f565b82525050565b60006020820190506108cd60008301846108a9565b92915050565b600080fd5b600080fd5b6000601f19601f8301169050919050565b7f4e487b7100000000000000000000000000000000000000000000000000000000600052604160045260246000fd5b610926826108dd565b810181811067ffffffffffffffff82111715610945576109446108ee565b5b80604052505050565b600061095861078b565b9050610964828261091d565b919050565b600067ffffffffffffffff821115610984576109836108ee565b5b61098d826108dd565b9050602081019050919050565b82818337600083830152505050565b60006109bc6109b784610969565b61094e565b9050828152602081018484840111156109d8576109d76108d8565b5b6109e384828561099a565b509392505050565b600082601f830112610a00576109ff6108d3565b5b8135610a108482602086016109a9565b91505092915050565b600060208284031215610a2f57610a2e610795565b5b600082013567ffffffffffffffff811115610a4d57610a4c61079a565b5b610a59848285016109eb565b91505092915050565b600081519050919050565b600082825260208201905092915050565b6000819050602082019050919050565b600081519050919050565b600082825260208201905092915050565b60005b83811015610ac8578082015181840152602081019050610aad565b83811115610ad7576000848401525b50505050565b6000610ae882610a8e565b610af28185610a99565b9350610b02818560208601610aaa565b610b0b816108dd565b840191505092915050565b610b1f8161079f565b82525050565b610b2e816107f5565b82525050565b600081519050919050565b600082825260208201905092915050565b6000819050602082019050919050565b6000610b6c8383610b25565b60208301905092915050565b6000602082019050919050565b6000610b9082610b34565b610b9a8185610b3f565b9350610ba583610b50565b8060005b83811015610bd6578151610bbd8882610b60565b9750610bc883610b78565b925050600181019050610ba9565b5085935050505092915050565b600060a0830160008301518482036000860152610c008282610add565b9150506020830151610c156020860182610b16565b506040830151610c286040860182610b25565b506060830151610c3b6060860182610b16565b5060808301518482036080860152610c538282610b85565b9150508091505092915050565b6000610c6c8383610be3565b905092915050565b6000602082019050919050565b6000610c8c82610a62565b610c968185610a6d565b935083602082028501610ca885610a7e565b8060005b85811015610ce45784840389528151610cc58582610c60565b9450610cd083610c74565b925060208a01995050600181019050610cac565b50829750879550505050505092915050565b60006020820190508181036000830152610d108184610c81565b905092915050565b7f4e487b7100000000000000000000000000000000000000000000000000000000600052603260045260246000fd5b7f4e487b7100000000000000000000000000000000000000000000000000000000600052601160045260246000fd5b6000610d818261079f565b91507fffffffffffffffffffffffffffffffffffffffffffffffffffffffffffffffff8203610db357610db2610d47565b5b600182019050919050565b600082825260208201905092915050565b6000610dda82610a8e565b610de48185610dbe565b9350610df4818560208601610aaa565b610dfd816108dd565b840191505092915050565b610e11816107f5565b82525050565b60006060820190508181036000830152610e318186610dcf565b9050610e4060208301856108a9565b610e4d6040830184610e08565b949350505050565b7f4e487b7100000000000000000000000000000000000000000000000000000000600052602260045260246000fd5b60006002820490506001821680610e9c57607f821691505b602082108103610eaf57610eae610e55565b5b5091905056fea264697066735822122031606dcd518e33285dda536d61451ded1e0a93a8ffb0be3647122df8235b7ccf64736f6c634300080d0033",
  "immutableReferences": {},
  "source": "//SPDX-License-Identifier: MIT\r\npragma solidity ^0.8.7;\r\n\r\ncontract DPost{\r\n   \r\n   uint256 count = 0;\r\n\r\n   struct Post{\r\n       string text;\r\n       uint256 time;\r\n       address userId;\r\n       uint256 likeCount;\r\n       address[] likeBy;\r\n   }\r\n\r\n    Post[]  posts;\r\n   \r\n   event postCreated(string text, uint256 time, address userId);\r\n\r\n    //Creating a new post\r\n   function createPost(string memory _text) public {\r\n       \r\n       uint256 _time = block.timestamp;\r\n       address _userId = msg.sender;\r\n\r\n       Post memory myPost;\r\n       myPost.text = _text;\r\n       myPost.time = _time;\r\n       myPost.userId = _userId;\r\n       myPost.likeCount = 0;\r\n\r\n        posts.push(myPost);\r\n        count++;\r\n        emit postCreated(_text,_time,_userId);\r\n       \r\n   }\r\n\r\n   function getAllPost() view public returns(Post[] memory){\r\n       return posts;\r\n   }\r\n\r\n    function getCount() view public returns(uint256){\r\n        return count;\r\n    }\r\n\r\n    function likePost(uint256 index, address addr)  public returns(bool){\r\n\r\n        bool found = false;\r\n\r\n        for(uint256 i=0;i<posts[index].likeBy.length;i++){\r\n            if(addr == posts[index].likeBy[i]){\r\n                found = true;\r\n                return false;\r\n            }\r\n        }\r\n\r\n        if(found == false){\r\n            posts[index].likeCount++;\r\n            posts[index].likeBy.push(addr);\r\n        }\r\n\r\n        return true;\r\n    }\r\n\r\n\r\n}",
  "sourcePath": "C:\\Users\\Sandeep\\OneDrive\\Desktop\\DPost\\src\\truffle\\contracts\\DPost.sol",
  "compiler": {
    "name": "solc",
    "version": "0.8.13+commit.abaa5c0e.Emscripten.clang"
  },
  "schemaVersion": "3.4.7",
  "updatedAt": "2022-06-10T11:26:50.611Z",
  "networkType": "ethereum",
  "devdoc": {
    "kind": "dev",
    "methods": {},
    "version": 1
  },
  "userdoc": {
    "kind": "user",
    "methods": {},
    "version": 1
  }
}